{
  "_format": "hh-sol-artifact-1",
  "contractName": "CreatorRegistry",
  "sourceName": "contracts/CreatorRegistry.sol",
  "abi": [
    {
      "inputs": [],
      "stateMutability": "nonpayable",
      "type": "constructor"
    },
    {
      "inputs": [
        {
          "internalType": "address",
          "name": "owner",
          "type": "address"
        }
      ],
      "name": "OwnableInvalidOwner",
      "type": "error"
    },
    {
      "inputs": [
        {
          "internalType": "address",
          "name": "account",
          "type": "address"
        }
      ],
      "name": "OwnableUnauthorizedAccount",
      "type": "error"
    },
    {
      "anonymous": false,
      "inputs": [
        {
          "indexed": true,
          "internalType": "bytes32",
          "name": "ipId",
          "type": "bytes32"
        },
        {
          "indexed": false,
          "internalType": "string",
          "name": "newIpMetadataUrl",
          "type": "string"
        }
      ],
      "name": "IpMetadataUpdated",
      "type": "event"
    },
    {
      "anonymous": false,
      "inputs": [
        {
          "indexed": true,
          "internalType": "address",
          "name": "creator",
          "type": "address"
        },
        {
          "indexed": true,
          "internalType": "bytes32",
          "name": "ipId",
          "type": "bytes32"
        },
        {
          "indexed": false,
          "internalType": "string",
          "name": "ipName",
          "type": "string"
        },
        {
          "indexed": false,
          "internalType": "string",
          "name": "ipMetadataUrl",
          "type": "string"
        },
        {
          "indexed": false,
          "internalType": "uint256",
          "name": "creationTimestamp",
          "type": "uint256"
        }
      ],
      "name": "IpRegistered",
      "type": "event"
    },
    {
      "anonymous": false,
      "inputs": [
        {
          "indexed": true,
          "internalType": "bytes32",
          "name": "ipId",
          "type": "bytes32"
        },
        {
          "indexed": false,
          "internalType": "bool",
          "name": "isVerified",
          "type": "bool"
        }
      ],
      "name": "IpVerificationStatusChanged",
      "type": "event"
    },
    {
      "anonymous": false,
      "inputs": [
        {
          "indexed": true,
          "internalType": "address",
          "name": "previousOwner",
          "type": "address"
        },
        {
          "indexed": true,
          "internalType": "address",
          "name": "newOwner",
          "type": "address"
        }
      ],
      "name": "OwnershipTransferred",
      "type": "event"
    },
    {
      "inputs": [
        {
          "internalType": "address",
          "name": "",
          "type": "address"
        },
        {
          "internalType": "uint256",
          "name": "",
          "type": "uint256"
        }
      ],
      "name": "creatorToIpIds",
      "outputs": [
        {
          "internalType": "bytes32",
          "name": "",
          "type": "bytes32"
        }
      ],
      "stateMutability": "view",
      "type": "function"
    },
    {
      "inputs": [
        {
          "internalType": "address",
          "name": "_creator",
          "type": "address"
        }
      ],
      "name": "getCreatorIpCount",
      "outputs": [
        {
          "internalType": "uint256",
          "name": "",
          "type": "uint256"
        }
      ],
      "stateMutability": "view",
      "type": "function"
    },
    {
      "inputs": [
        {
          "internalType": "address",
          "name": "_creator",
          "type": "address"
        }
      ],
      "name": "getCreatorIpList",
      "outputs": [
        {
          "internalType": "bytes32[]",
          "name": "",
          "type": "bytes32[]"
        }
      ],
      "stateMutability": "view",
      "type": "function"
    },
    {
      "inputs": [
        {
          "internalType": "bytes32",
          "name": "_ipId",
          "type": "bytes32"
        }
      ],
      "name": "getIpDetails",
      "outputs": [
        {
          "components": [
            {
              "internalType": "address",
              "name": "creatorAddress",
              "type": "address"
            },
            {
              "internalType": "string",
              "name": "ipName",
              "type": "string"
            },
            {
              "internalType": "string",
              "name": "ipMetadataUrl",
              "type": "string"
            },
            {
              "internalType": "bool",
              "name": "isVerified",
              "type": "bool"
            },
            {
              "internalType": "uint256",
              "name": "creationTimestamp",
              "type": "uint256"
            }
          ],
          "internalType": "struct CreatorRegistry.RegisteredIp",
          "name": "",
          "type": "tuple"
        }
      ],
      "stateMutability": "view",
      "type": "function"
    },
    {
      "inputs": [
        {
          "internalType": "bytes32",
          "name": "",
          "type": "bytes32"
        }
      ],
      "name": "ipIdExists",
      "outputs": [
        {
          "internalType": "bool",
          "name": "",
          "type": "bool"
        }
      ],
      "stateMutability": "view",
      "type": "function"
    },
    {
      "inputs": [
        {
          "internalType": "bytes32",
          "name": "",
          "type": "bytes32"
        }
      ],
      "name": "ipIdToDetails",
      "outputs": [
        {
          "internalType": "address",
          "name": "creatorAddress",
          "type": "address"
        },
        {
          "internalType": "string",
          "name": "ipName",
          "type": "string"
        },
        {
          "internalType": "string",
          "name": "ipMetadataUrl",
          "type": "string"
        },
        {
          "internalType": "bool",
          "name": "isVerified",
          "type": "bool"
        },
        {
          "internalType": "uint256",
          "name": "creationTimestamp",
          "type": "uint256"
        }
      ],
      "stateMutability": "view",
      "type": "function"
    },
    {
      "inputs": [],
      "name": "owner",
      "outputs": [
        {
          "internalType": "address",
          "name": "",
          "type": "address"
        }
      ],
      "stateMutability": "view",
      "type": "function"
    },
    {
      "inputs": [
        {
          "internalType": "string",
          "name": "_ipName",
          "type": "string"
        },
        {
          "internalType": "string",
          "name": "_ipMetadataUrl",
          "type": "string"
        }
      ],
      "name": "registerIp",
      "outputs": [
        {
          "internalType": "bytes32",
          "name": "",
          "type": "bytes32"
        }
      ],
      "stateMutability": "nonpayable",
      "type": "function"
    },
    {
      "inputs": [],
      "name": "renounceOwnership",
      "outputs": [],
      "stateMutability": "nonpayable",
      "type": "function"
    },
    {
      "inputs": [
        {
          "internalType": "bytes32",
          "name": "_ipId",
          "type": "bytes32"
        },
        {
          "internalType": "bool",
          "name": "_isVerified",
          "type": "bool"
        }
      ],
      "name": "setIpVerificationStatus",
      "outputs": [],
      "stateMutability": "nonpayable",
      "type": "function"
    },
    {
      "inputs": [
        {
          "internalType": "address",
          "name": "newOwner",
          "type": "address"
        }
      ],
      "name": "transferOwnership",
      "outputs": [],
      "stateMutability": "nonpayable",
      "type": "function"
    },
    {
      "inputs": [
        {
          "internalType": "bytes32",
          "name": "_ipId",
          "type": "bytes32"
        },
        {
          "internalType": "string",
          "name": "_newIpMetadataUrl",
          "type": "string"
        }
      ],
      "name": "updateIpMetadata",
      "outputs": [],
      "stateMutability": "nonpayable",
      "type": "function"
    },
    {
      "inputs": [],
      "name": "withdraw",
      "outputs": [],
      "stateMutability": "nonpayable",
      "type": "function"
    },
    {
      "inputs": [
        {
          "internalType": "address",
          "name": "_tokenContract",
          "type": "address"
        },
        {
          "internalType": "uint256",
          "name": "_amount",
          "type": "uint256"
        }
      ],
      "name": "withdrawToken",
      "outputs": [],
      "stateMutability": "nonpayable",
      "type": "function"
    }
  ],
  "bytecode": "0x60806040523480156200001157600080fd5b5033600073ffffffffffffffffffffffffffffffffffffffff168173ffffffffffffffffffffffffffffffffffffffff1603620000885760006040517f1e4fbdf70000000000000000000000000000000000000000000000000000000081526004016200007f9190620001a9565b60405180910390fd5b6200009981620000a060201b60201c565b50620001c6565b60008060009054906101000a900473ffffffffffffffffffffffffffffffffffffffff169050816000806101000a81548173ffffffffffffffffffffffffffffffffffffffff021916908373ffffffffffffffffffffffffffffffffffffffff1602179055508173ffffffffffffffffffffffffffffffffffffffff168173ffffffffffffffffffffffffffffffffffffffff167f8be0079c531659141344cd1fd0a4f28419497f9722a3daafe3b4186f6b6457e060405160405180910390a35050565b600073ffffffffffffffffffffffffffffffffffffffff82169050919050565b6000620001918262000164565b9050919050565b620001a38162000184565b82525050565b6000602082019050620001c0600083018462000198565b92915050565b61236980620001d66000396000f3fe608060405234801561001057600080fd5b50600436106100ea5760003560e01c80639be43e1a1161008c578063ada9884f11610066578063ada9884f14610261578063df79d2951461027d578063e278e33314610299578063f2fde38b146102c9576100ea565b80639be43e1a146101e15780639e281a9814610211578063a69f05451461022d576100ea565b8063491e4e4d116100c8578063491e4e4d1461015957806355760d4d14610189578063715018a6146101b95780638da5cb5b146101c3576100ea565b80631d5e1569146100ef5780631f13ab5d1461011f5780633ccfd60b1461014f575b600080fd5b6101096004803603810190610104919061130f565b6102e5565b6040516101169190611368565b60405180910390f35b610139600480360381019061013491906113e8565b610316565b6040516101469190611368565b60405180910390f35b610157610687565b005b610173600480360381019061016e9190611469565b6106df565b6040516101809190611554565b60405180910390f35b6101a3600480360381019061019e9190611469565b610776565b6040516101b09190611585565b60405180910390f35b6101c16107c2565b005b6101cb6107d6565b6040516101d891906115af565b60405180910390f35b6101fb60048036038101906101f691906115f6565b6107ff565b6040516102089190611769565b60405180910390f35b61022b6004803603810190610226919061130f565b610a2b565b005b610247600480360381019061024291906115f6565b610bea565b6040516102589594939291906117e4565b60405180910390f35b61027b60048036038101906102769190611845565b610d5d565b005b610297600480360381019061029291906118d1565b610f0c565b005b6102b360048036038101906102ae91906115f6565b610fde565b6040516102c09190611911565b60405180910390f35b6102e360048036038101906102de9190611469565b610ffe565b005b6003602052816000526040600020818154811061030157600080fd5b90600052602060002001600091509150505481565b600080858590501161035d576040517f08c379a000000000000000000000000000000000000000000000000000000000815260040161035490611978565b60405180910390fd5b600083839050116103a3576040517f08c379a000000000000000000000000000000000000000000000000000000000815260040161039a906119e4565b60405180910390fd5b60006103ae33611084565b90506004600082815260200190815260200160002060009054906101000a900460ff1615610411576040517f08c379a000000000000000000000000000000000000000000000000000000000815260040161040890611a76565b60405180910390fd5b60006040518060a001604052803373ffffffffffffffffffffffffffffffffffffffff16815260200188888080601f016020809104026020016040519081016040528093929190818152602001838380828437600081840152601f19601f82011690508083019250505050505050815260200186868080601f016020809104026020016040519081016040528093929190818152602001838380828437600081840152601f19601f820116905080830192505050505050508152602001600015158152602001428152509050806002600084815260200190815260200160002060008201518160000160006101000a81548173ffffffffffffffffffffffffffffffffffffffff021916908373ffffffffffffffffffffffffffffffffffffffff160217905550602082015181600101908161054d9190611cd1565b5060408201518160020190816105639190611cd1565b5060608201518160030160006101000a81548160ff02191690831515021790555060808201518160040155905050600360003373ffffffffffffffffffffffffffffffffffffffff1673ffffffffffffffffffffffffffffffffffffffff16815260200190815260200160002082908060018154018082558091505060019003906000526020600020016000909190919091505560016004600084815260200190815260200160002060006101000a81548160ff021916908315150217905550813373ffffffffffffffffffffffffffffffffffffffff167f258595740aa279cdbe3069bc269fbf59a1611a85b7e9ed3f0d9400ccd7a44d5a8989898942604051610672959493929190611ddf565b60405180910390a38192505050949350505050565b61068f6110d7565b6106976107d6565b73ffffffffffffffffffffffffffffffffffffffff166108fc479081150290604051600060405180830381858888f193505050501580156106dc573d6000803e3d6000fd5b50565b6060600360008373ffffffffffffffffffffffffffffffffffffffff1673ffffffffffffffffffffffffffffffffffffffff16815260200190815260200160002080548060200260200160405190810160405280929190818152602001828054801561076a57602002820191906000526020600020905b815481526020019060010190808311610756575b50505050509050919050565b6000600360008373ffffffffffffffffffffffffffffffffffffffff1673ffffffffffffffffffffffffffffffffffffffff168152602001908152602001600020805490509050919050565b6107ca6110d7565b6107d4600061115e565b565b60008060009054906101000a900473ffffffffffffffffffffffffffffffffffffffff16905090565b61080761122a565b6004600083815260200190815260200160002060009054906101000a900460ff16610867576040517f08c379a000000000000000000000000000000000000000000000000000000000815260040161085e90611e74565b60405180910390fd5b600260008381526020019081526020016000206040518060a00160405290816000820160009054906101000a900473ffffffffffffffffffffffffffffffffffffffff1673ffffffffffffffffffffffffffffffffffffffff1673ffffffffffffffffffffffffffffffffffffffff1681526020016001820180546108eb90611af4565b80601f016020809104026020016040519081016040528092919081815260200182805461091790611af4565b80156109645780601f1061093957610100808354040283529160200191610964565b820191906000526020600020905b81548152906001019060200180831161094757829003601f168201915b5050505050815260200160028201805461097d90611af4565b80601f01602080910402602001604051908101604052809291908181526020018280546109a990611af4565b80156109f65780601f106109cb576101008083540402835291602001916109f6565b820191906000526020600020905b8154815290600101906020018083116109d957829003601f168201915b505050505081526020016003820160009054906101000a900460ff161515151581526020016004820154815250509050919050565b610a336110d7565b600073ffffffffffffffffffffffffffffffffffffffff168273ffffffffffffffffffffffffffffffffffffffff1603610aa2576040517f08c379a0000000000000000000000000000000000000000000000000000000008152600401610a9990611ee0565b60405180910390fd5b60008273ffffffffffffffffffffffffffffffffffffffff16610ac36107d6565b83604051602401610ad5929190611f00565b6040516020818303038152906040527fa9059cbb000000000000000000000000000000000000000000000000000000007bffffffffffffffffffffffffffffffffffffffffffffffffffffffff19166020820180517bffffffffffffffffffffffffffffffffffffffffffffffffffffffff8381831617835250505050604051610b5f9190611f70565b6000604051808303816000865af19150503d8060008114610b9c576040519150601f19603f3d011682016040523d82523d6000602084013e610ba1565b606091505b5050905080610be5576040517f08c379a0000000000000000000000000000000000000000000000000000000008152600401610bdc90611fd3565b60405180910390fd5b505050565b60026020528060005260406000206000915090508060000160009054906101000a900473ffffffffffffffffffffffffffffffffffffffff1690806001018054610c3390611af4565b80601f0160208091040260200160405190810160405280929190818152602001828054610c5f90611af4565b8015610cac5780601f10610c8157610100808354040283529160200191610cac565b820191906000526020600020905b815481529060010190602001808311610c8f57829003601f168201915b505050505090806002018054610cc190611af4565b80601f0160208091040260200160405190810160405280929190818152602001828054610ced90611af4565b8015610d3a5780601f10610d0f57610100808354040283529160200191610d3a565b820191906000526020600020905b815481529060010190602001808311610d1d57829003601f168201915b5050505050908060030160009054906101000a900460ff16908060040154905085565b6004600084815260200190815260200160002060009054906101000a900460ff16610dbd576040517f08c379a0000000000000000000000000000000000000000000000000000000008152600401610db490611e74565b60405180910390fd5b3373ffffffffffffffffffffffffffffffffffffffff166002600085815260200190815260200160002060000160009054906101000a900473ffffffffffffffffffffffffffffffffffffffff1673ffffffffffffffffffffffffffffffffffffffff1614610e61576040517f08c379a0000000000000000000000000000000000000000000000000000000008152600401610e5890612065565b60405180910390fd5b60008282905011610ea7576040517f08c379a0000000000000000000000000000000000000000000000000000000008152600401610e9e906120f7565b60405180910390fd5b8181600260008681526020019081526020016000206002019182610ecc929190612122565b50827fd30fec11352ac9383c6c0e0279fff99603740f31875704d01caf2f92626e4be38383604051610eff9291906121f2565b60405180910390a2505050565b610f146110d7565b6004600083815260200190815260200160002060009054906101000a900460ff16610f74576040517f08c379a0000000000000000000000000000000000000000000000000000000008152600401610f6b90611e74565b60405180910390fd5b806002600084815260200190815260200160002060030160006101000a81548160ff021916908315150217905550817faa440edabd140d80a033f01183cf625f79ade01edb5aa38f4b5058abdc7280e882604051610fd29190611911565b60405180910390a25050565b60046020528060005260406000206000915054906101000a900460ff1681565b6110066110d7565b600073ffffffffffffffffffffffffffffffffffffffff168173ffffffffffffffffffffffffffffffffffffffff16036110785760006040517f1e4fbdf700000000000000000000000000000000000000000000000000000000815260040161106f91906115af565b60405180910390fd5b6110818161115e565b50565b600080826001544260405160200161109e9392919061227f565b604051602081830303815290604052805190602001209050600160008154809291906110c9906122eb565b919050555080915050919050565b6110df611222565b73ffffffffffffffffffffffffffffffffffffffff166110fd6107d6565b73ffffffffffffffffffffffffffffffffffffffff161461115c57611120611222565b6040517f118cdaa700000000000000000000000000000000000000000000000000000000815260040161115391906115af565b60405180910390fd5b565b60008060009054906101000a900473ffffffffffffffffffffffffffffffffffffffff169050816000806101000a81548173ffffffffffffffffffffffffffffffffffffffff021916908373ffffffffffffffffffffffffffffffffffffffff1602179055508173ffffffffffffffffffffffffffffffffffffffff168173ffffffffffffffffffffffffffffffffffffffff167f8be0079c531659141344cd1fd0a4f28419497f9722a3daafe3b4186f6b6457e060405160405180910390a35050565b600033905090565b6040518060a00160405280600073ffffffffffffffffffffffffffffffffffffffff1681526020016060815260200160608152602001600015158152602001600081525090565b600080fd5b600080fd5b600073ffffffffffffffffffffffffffffffffffffffff82169050919050565b60006112a68261127b565b9050919050565b6112b68161129b565b81146112c157600080fd5b50565b6000813590506112d3816112ad565b92915050565b6000819050919050565b6112ec816112d9565b81146112f757600080fd5b50565b600081359050611309816112e3565b92915050565b6000806040838503121561132657611325611271565b5b6000611334858286016112c4565b9250506020611345858286016112fa565b9150509250929050565b6000819050919050565b6113628161134f565b82525050565b600060208201905061137d6000830184611359565b92915050565b600080fd5b600080fd5b600080fd5b60008083601f8401126113a8576113a7611383565b5b8235905067ffffffffffffffff8111156113c5576113c4611388565b5b6020830191508360018202830111156113e1576113e061138d565b5b9250929050565b6000806000806040858703121561140257611401611271565b5b600085013567ffffffffffffffff8111156114205761141f611276565b5b61142c87828801611392565b9450945050602085013567ffffffffffffffff81111561144f5761144e611276565b5b61145b87828801611392565b925092505092959194509250565b60006020828403121561147f5761147e611271565b5b600061148d848285016112c4565b91505092915050565b600081519050919050565b600082825260208201905092915050565b6000819050602082019050919050565b6114cb8161134f565b82525050565b60006114dd83836114c2565b60208301905092915050565b6000602082019050919050565b600061150182611496565b61150b81856114a1565b9350611516836114b2565b8060005b8381101561154757815161152e88826114d1565b9750611539836114e9565b92505060018101905061151a565b5085935050505092915050565b6000602082019050818103600083015261156e81846114f6565b905092915050565b61157f816112d9565b82525050565b600060208201905061159a6000830184611576565b92915050565b6115a98161129b565b82525050565b60006020820190506115c460008301846115a0565b92915050565b6115d38161134f565b81146115de57600080fd5b50565b6000813590506115f0816115ca565b92915050565b60006020828403121561160c5761160b611271565b5b600061161a848285016115e1565b91505092915050565b61162c8161129b565b82525050565b600081519050919050565b600082825260208201905092915050565b60005b8381101561166c578082015181840152602081019050611651565b60008484015250505050565b6000601f19601f8301169050919050565b600061169482611632565b61169e818561163d565b93506116ae81856020860161164e565b6116b781611678565b840191505092915050565b60008115159050919050565b6116d7816116c2565b82525050565b6116e6816112d9565b82525050565b600060a0830160008301516117046000860182611623565b506020830151848203602086015261171c8282611689565b915050604083015184820360408601526117368282611689565b915050606083015161174b60608601826116ce565b50608083015161175e60808601826116dd565b508091505092915050565b6000602082019050818103600083015261178381846116ec565b905092915050565b600082825260208201905092915050565b60006117a782611632565b6117b1818561178b565b93506117c181856020860161164e565b6117ca81611678565b840191505092915050565b6117de816116c2565b82525050565b600060a0820190506117f960008301886115a0565b818103602083015261180b818761179c565b9050818103604083015261181f818661179c565b905061182e60608301856117d5565b61183b6080830184611576565b9695505050505050565b60008060006040848603121561185e5761185d611271565b5b600061186c868287016115e1565b935050602084013567ffffffffffffffff81111561188d5761188c611276565b5b61189986828701611392565b92509250509250925092565b6118ae816116c2565b81146118b957600080fd5b50565b6000813590506118cb816118a5565b92915050565b600080604083850312156118e8576118e7611271565b5b60006118f6858286016115e1565b9250506020611907858286016118bc565b9150509250929050565b600060208201905061192660008301846117d5565b92915050565b7f4950206e616d652063616e6e6f7420626520656d707479000000000000000000600082015250565b600061196260178361178b565b915061196d8261192c565b602082019050919050565b6000602082019050818103600083015261199181611955565b9050919050565b7f4950206d657461646174612055524c2063616e6e6f7420626520656d70747900600082015250565b60006119ce601f8361178b565b91506119d982611998565b602082019050919050565b600060208201905081810360008301526119fd816119c1565b9050919050565b7f47656e65726174656420495020494420616c7265616479206578697374732c2060008201527f74727920616761696e0000000000000000000000000000000000000000000000602082015250565b6000611a6060298361178b565b9150611a6b82611a04565b604082019050919050565b60006020820190508181036000830152611a8f81611a53565b9050919050565b7f4e487b7100000000000000000000000000000000000000000000000000000000600052604160045260246000fd5b7f4e487b7100000000000000000000000000000000000000000000000000000000600052602260045260246000fd5b60006002820490506001821680611b0c57607f821691505b602082108103611b1f57611b1e611ac5565b5b50919050565b60008190508160005260206000209050919050565b60006020601f8301049050919050565b600082821b905092915050565b600060088302611b877fffffffffffffffffffffffffffffffffffffffffffffffffffffffffffffffff82611b4a565b611b918683611b4a565b95508019841693508086168417925050509392505050565b6000819050919050565b6000611bce611bc9611bc4846112d9565b611ba9565b6112d9565b9050919050565b6000819050919050565b611be883611bb3565b611bfc611bf482611bd5565b848454611b57565b825550505050565b600090565b611c11611c04565b611c1c818484611bdf565b505050565b5b81811015611c4057611c35600082611c09565b600181019050611c22565b5050565b601f821115611c8557611c5681611b25565b611c5f84611b3a565b81016020851015611c6e578190505b611c82611c7a85611b3a565b830182611c21565b50505b505050565b600082821c905092915050565b6000611ca860001984600802611c8a565b1980831691505092915050565b6000611cc18383611c97565b9150826002028217905092915050565b611cda82611632565b67ffffffffffffffff811115611cf357611cf2611a96565b5b611cfd8254611af4565b611d08828285611c44565b600060209050601f831160018114611d3b5760008415611d29578287015190505b611d338582611cb5565b865550611d9b565b601f198416611d4986611b25565b60005b82811015611d7157848901518255600182019150602085019450602081019050611d4c565b86831015611d8e5784890151611d8a601f891682611c97565b8355505b6001600288020188555050505b505050505050565b82818337600083830152505050565b6000611dbe838561178b565b9350611dcb838584611da3565b611dd483611678565b840190509392505050565b60006060820190508181036000830152611dfa818789611db2565b90508181036020830152611e0f818587611db2565b9050611e1e6040830184611576565b9695505050505050565b7f495020494420646f6573206e6f74206578697374000000000000000000000000600082015250565b6000611e5e60148361178b565b9150611e6982611e28565b602082019050919050565b60006020820190508181036000830152611e8d81611e51565b9050919050565b7f496e76616c696420746f6b656e20616464726573730000000000000000000000600082015250565b6000611eca60158361178b565b9150611ed582611e94565b602082019050919050565b60006020820190508181036000830152611ef981611ebd565b9050919050565b6000604082019050611f1560008301856115a0565b611f226020830184611576565b9392505050565b600081519050919050565b600081905092915050565b6000611f4a82611f29565b611f548185611f34565b9350611f6481856020860161164e565b80840191505092915050565b6000611f7c8284611f3f565b915081905092915050565b7f546f6b656e207472616e73666572206661696c65640000000000000000000000600082015250565b6000611fbd60158361178b565b9150611fc882611f87565b602082019050919050565b60006020820190508181036000830152611fec81611fb0565b9050919050565b7f4f6e6c79207468652049502063726561746f722063616e20757064617465206d60008201527f6574616461746100000000000000000000000000000000000000000000000000602082015250565b600061204f60278361178b565b915061205a82611ff3565b604082019050919050565b6000602082019050818103600083015261207e81612042565b9050919050565b7f4e6577204950206d657461646174612055524c2063616e6e6f7420626520656d60008201527f7074790000000000000000000000000000000000000000000000000000000000602082015250565b60006120e160238361178b565b91506120ec82612085565b604082019050919050565b60006020820190508181036000830152612110816120d4565b9050919050565b600082905092915050565b61212c8383612117565b67ffffffffffffffff81111561214557612144611a96565b5b61214f8254611af4565b61215a828285611c44565b6000601f8311600181146121895760008415612177578287013590505b6121818582611cb5565b8655506121e9565b601f19841661219786611b25565b60005b828110156121bf5784890135825560018201915060208501945060208101905061219a565b868310156121dc57848901356121d8601f891682611c97565b8355505b6001600288020188555050505b50505050505050565b6000602082019050818103600083015261220d818486611db2565b90509392505050565b60008160601b9050919050565b600061222e82612216565b9050919050565b600061224082612223565b9050919050565b6122586122538261129b565b612235565b82525050565b6000819050919050565b612279612274826112d9565b61225e565b82525050565b600061228b8286612247565b60148201915061229b8285612268565b6020820191506122ab8284612268565b602082019150819050949350505050565b7f4e487b7100000000000000000000000000000000000000000000000000000000600052601160045260246000fd5b60006122f6826112d9565b91507fffffffffffffffffffffffffffffffffffffffffffffffffffffffffffffffff8203612328576123276122bc565b5b60018201905091905056fea26469706673582212201f45ae2c7ad7f80c3fa8a9f1e0d665ddfcbbd5b5ffad0d6d1b15742a4cb7a5f364736f6c63430008180033",
  "linkReferences": {},
  "deployedLinkReferences": {}
}