{
  "_format": "hh-sol-artifact-1",
  "contractName": "Tipping",
  "sourceName": "contracts/Tipping.sol",
  "abi": [
    {
      "inputs": [
        {
          "internalType": "address",
          "name": "_tokenAddress",
          "type": "address"
        }
      ],
      "stateMutability": "nonpayable",
      "type": "constructor"
    },
    {
      "inputs": [
        {
          "internalType": "address",
          "name": "owner",
          "type": "address"
        }
      ],
      "name": "OwnableInvalidOwner",
      "type": "error"
    },
    {
      "inputs": [
        {
          "internalType": "address",
          "name": "account",
          "type": "address"
        }
      ],
      "name": "OwnableUnauthorizedAccount",
      "type": "error"
    },
    {
      "anonymous": false,
      "inputs": [
        {
          "indexed": true,
          "internalType": "address",
          "name": "previousOwner",
          "type": "address"
        },
        {
          "indexed": true,
          "internalType": "address",
          "name": "newOwner",
          "type": "address"
        }
      ],
      "name": "OwnershipTransferred",
      "type": "event"
    },
    {
      "anonymous": false,
      "inputs": [
        {
          "indexed": true,
          "internalType": "address",
          "name": "from",
          "type": "address"
        },
        {
          "indexed": true,
          "internalType": "address",
          "name": "to",
          "type": "address"
        },
        {
          "indexed": false,
          "internalType": "uint256",
          "name": "amount",
          "type": "uint256"
        },
        {
          "indexed": false,
          "internalType": "string",
          "name": "message",
          "type": "string"
        },
        {
          "indexed": false,
          "internalType": "uint256",
          "name": "timestamp",
          "type": "uint256"
        },
        {
          "indexed": true,
          "internalType": "bytes32",
          "name": "ipId",
          "type": "bytes32"
        }
      ],
      "name": "TipSent",
      "type": "event"
    },
    {
      "stateMutability": "payable",
      "type": "fallback"
    },
    {
      "inputs": [
        {
          "internalType": "address",
          "name": "_user",
          "type": "address"
        }
      ],
      "name": "getTipsForUser",
      "outputs": [
        {
          "components": [
            {
              "internalType": "address",
              "name": "from",
              "type": "address"
            },
            {
              "internalType": "address",
              "name": "to",
              "type": "address"
            },
            {
              "internalType": "uint256",
              "name": "amount",
              "type": "uint256"
            },
            {
              "internalType": "string",
              "name": "message",
              "type": "string"
            },
            {
              "internalType": "uint256",
              "name": "timestamp",
              "type": "uint256"
            }
          ],
          "internalType": "struct Tipping.Tip[]",
          "name": "",
          "type": "tuple[]"
        }
      ],
      "stateMutability": "view",
      "type": "function"
    },
    {
      "inputs": [],
      "name": "owner",
      "outputs": [
        {
          "internalType": "address",
          "name": "",
          "type": "address"
        }
      ],
      "stateMutability": "view",
      "type": "function"
    },
    {
      "inputs": [],
      "name": "renounceOwnership",
      "outputs": [],
      "stateMutability": "nonpayable",
      "type": "function"
    },
    {
      "inputs": [
        {
          "internalType": "address",
          "name": "_tokenAddress",
          "type": "address"
        }
      ],
      "name": "setTippingToken",
      "outputs": [],
      "stateMutability": "nonpayable",
      "type": "function"
    },
    {
      "inputs": [
        {
          "internalType": "address payable",
          "name": "_recipient",
          "type": "address"
        },
        {
          "internalType": "string",
          "name": "_message",
          "type": "string"
        },
        {
          "internalType": "bytes32",
          "name": "_ipId",
          "type": "bytes32"
        }
      ],
      "name": "tipNative",
      "outputs": [],
      "stateMutability": "payable",
      "type": "function"
    },
    {
      "inputs": [
        {
          "internalType": "address",
          "name": "_recipient",
          "type": "address"
        },
        {
          "internalType": "uint256",
          "name": "_amount",
          "type": "uint256"
        },
        {
          "internalType": "string",
          "name": "_message",
          "type": "string"
        }
      ],
      "name": "tipToken",
      "outputs": [],
      "stateMutability": "nonpayable",
      "type": "function"
    },
    {
      "inputs": [],
      "name": "tippingToken",
      "outputs": [
        {
          "internalType": "contract IERC20",
          "name": "",
          "type": "address"
        }
      ],
      "stateMutability": "view",
      "type": "function"
    },
    {
      "inputs": [
        {
          "internalType": "address",
          "name": "",
          "type": "address"
        },
        {
          "internalType": "uint256",
          "name": "",
          "type": "uint256"
        }
      ],
      "name": "tipsReceived",
      "outputs": [
        {
          "internalType": "address",
          "name": "from",
          "type": "address"
        },
        {
          "internalType": "address",
          "name": "to",
          "type": "address"
        },
        {
          "internalType": "uint256",
          "name": "amount",
          "type": "uint256"
        },
        {
          "internalType": "string",
          "name": "message",
          "type": "string"
        },
        {
          "internalType": "uint256",
          "name": "timestamp",
          "type": "uint256"
        }
      ],
      "stateMutability": "view",
      "type": "function"
    },
    {
      "inputs": [
        {
          "internalType": "address",
          "name": "",
          "type": "address"
        }
      ],
      "name": "totalTippedTo",
      "outputs": [
        {
          "internalType": "uint256",
          "name": "",
          "type": "uint256"
        }
      ],
      "stateMutability": "view",
      "type": "function"
    },
    {
      "inputs": [
        {
          "internalType": "address",
          "name": "newOwner",
          "type": "address"
        }
      ],
      "name": "transferOwnership",
      "outputs": [],
      "stateMutability": "nonpayable",
      "type": "function"
    },
    {
      "stateMutability": "payable",
      "type": "receive"
    }
  ],
  "bytecode": "0x60806040523480156200001157600080fd5b506040516200230d3803806200230d83398181016040528101906200003791906200026b565b33600073ffffffffffffffffffffffffffffffffffffffff168173ffffffffffffffffffffffffffffffffffffffff1603620000ad5760006040517f1e4fbdf7000000000000000000000000000000000000000000000000000000008152600401620000a49190620002ae565b60405180910390fd5b620000be816200013d60201b60201c565b50600073ffffffffffffffffffffffffffffffffffffffff168173ffffffffffffffffffffffffffffffffffffffff1614620001365780600360006101000a81548173ffffffffffffffffffffffffffffffffffffffff021916908373ffffffffffffffffffffffffffffffffffffffff1602179055505b50620002cb565b60008060009054906101000a900473ffffffffffffffffffffffffffffffffffffffff169050816000806101000a81548173ffffffffffffffffffffffffffffffffffffffff021916908373ffffffffffffffffffffffffffffffffffffffff1602179055508173ffffffffffffffffffffffffffffffffffffffff168173ffffffffffffffffffffffffffffffffffffffff167f8be0079c531659141344cd1fd0a4f28419497f9722a3daafe3b4186f6b6457e060405160405180910390a35050565b600080fd5b600073ffffffffffffffffffffffffffffffffffffffff82169050919050565b6000620002338262000206565b9050919050565b620002458162000226565b81146200025157600080fd5b50565b60008151905062000265816200023a565b92915050565b60006020828403121562000284576200028362000201565b5b6000620002948482850162000254565b91505092915050565b620002a88162000226565b82525050565b6000602082019050620002c560008301846200029d565b92915050565b61203280620002db6000396000f3fe6080604052600436106100955760003560e01c8063a9b5286411610059578063a9b5286414610164578063b053fbcd146101a5578063b31b7b3b146101ce578063f2fde38b1461020b578063f324cade146102345761009c565b8063715018a61461009e578063794eaa24146100b557806381b92f05146100e05780638da5cb5b1461011d578063a8acff48146101485761009c565b3661009c57005b005b3480156100aa57600080fd5b506100b361025d565b005b3480156100c157600080fd5b506100ca610271565b6040516100d791906111f5565b60405180910390f35b3480156100ec57600080fd5b5061010760048036038101906101029190611262565b610297565b604051610114919061147f565b60405180910390f35b34801561012957600080fd5b50610132610487565b60405161013f91906114b0565b60405180910390f35b610162600480360381019061015d9190611674565b6104b0565b005b34801561017057600080fd5b5061018b6004803603810190610186919061170f565b61084f565b60405161019c9594939291906117a8565b60405180910390f35b3480156101b157600080fd5b506101cc60048036038101906101c79190611262565b61096a565b005b3480156101da57600080fd5b506101f560048036038101906101f09190611262565b610a32565b6040516102029190611802565b60405180910390f35b34801561021757600080fd5b50610232600480360381019061022d9190611262565b610a4a565b005b34801561024057600080fd5b5061025b6004803603810190610256919061181d565b610ad0565b005b610265611023565b61026f60006110aa565b565b600360009054906101000a900473ffffffffffffffffffffffffffffffffffffffff1681565b6060600160008373ffffffffffffffffffffffffffffffffffffffff1673ffffffffffffffffffffffffffffffffffffffff168152602001908152602001600020805480602002602001604051908101604052809291908181526020016000905b8282101561047c57838290600052602060002090600502016040518060a00160405290816000820160009054906101000a900473ffffffffffffffffffffffffffffffffffffffff1673ffffffffffffffffffffffffffffffffffffffff1673ffffffffffffffffffffffffffffffffffffffff1681526020016001820160009054906101000a900473ffffffffffffffffffffffffffffffffffffffff1673ffffffffffffffffffffffffffffffffffffffff1673ffffffffffffffffffffffffffffffffffffffff168152602001600282015481526020016003820180546103e1906118bb565b80601f016020809104026020016040519081016040528092919081815260200182805461040d906118bb565b801561045a5780601f1061042f5761010080835404028352916020019161045a565b820191906000526020600020905b81548152906001019060200180831161043d57829003601f168201915b50505050508152602001600482015481525050815260200190600101906102f8565b505050509050919050565b60008060009054906101000a900473ffffffffffffffffffffffffffffffffffffffff16905090565b600073ffffffffffffffffffffffffffffffffffffffff168373ffffffffffffffffffffffffffffffffffffffff160361051f576040517f08c379a000000000000000000000000000000000000000000000000000000000815260040161051690611938565b60405180910390fd5b60003411610562576040517f08c379a0000000000000000000000000000000000000000000000000000000008152600401610559906119ca565b60405180910390fd5b60008373ffffffffffffffffffffffffffffffffffffffff163460405161058890611a1b565b60006040518083038185875af1925050503d80600081146105c5576040519150601f19603f3d011682016040523d82523d6000602084013e6105ca565b606091505b505090508061060e576040517f08c379a000000000000000000000000000000000000000000000000000000000815260040161060590611a7c565b60405180910390fd5b60006040518060a001604052803373ffffffffffffffffffffffffffffffffffffffff1681526020018673ffffffffffffffffffffffffffffffffffffffff168152602001348152602001858152602001428152509050600160008673ffffffffffffffffffffffffffffffffffffffff1673ffffffffffffffffffffffffffffffffffffffff16815260200190815260200160002081908060018154018082558091505060019003906000526020600020906005020160009091909190915060008201518160000160006101000a81548173ffffffffffffffffffffffffffffffffffffffff021916908373ffffffffffffffffffffffffffffffffffffffff16021790555060208201518160010160006101000a81548173ffffffffffffffffffffffffffffffffffffffff021916908373ffffffffffffffffffffffffffffffffffffffff16021790555060408201518160020155606082015181600301908161077b9190611c3e565b5060808201518160040155505034600260008773ffffffffffffffffffffffffffffffffffffffff1673ffffffffffffffffffffffffffffffffffffffff16815260200190815260200160002060008282546107d79190611d3f565b92505081905550828573ffffffffffffffffffffffffffffffffffffffff163373ffffffffffffffffffffffffffffffffffffffff167fe6802d462de9f1d8f0556d407edb80b10b7db657ea86b86ea13b19828ea9e83634884260405161084093929190611d73565b60405180910390a45050505050565b6001602052816000526040600020818154811061086b57600080fd5b9060005260206000209060050201600091509150508060000160009054906101000a900473ffffffffffffffffffffffffffffffffffffffff16908060010160009054906101000a900473ffffffffffffffffffffffffffffffffffffffff16908060020154908060030180546108e1906118bb565b80601f016020809104026020016040519081016040528092919081815260200182805461090d906118bb565b801561095a5780601f1061092f5761010080835404028352916020019161095a565b820191906000526020600020905b81548152906001019060200180831161093d57829003601f168201915b5050505050908060040154905085565b610972611023565b600073ffffffffffffffffffffffffffffffffffffffff168173ffffffffffffffffffffffffffffffffffffffff16036109ed576000600360006101000a81548173ffffffffffffffffffffffffffffffffffffffff021916908373ffffffffffffffffffffffffffffffffffffffff160217905550610a2f565b80600360006101000a81548173ffffffffffffffffffffffffffffffffffffffff021916908373ffffffffffffffffffffffffffffffffffffffff1602179055505b50565b60026020528060005260406000206000915090505481565b610a52611023565b600073ffffffffffffffffffffffffffffffffffffffff168173ffffffffffffffffffffffffffffffffffffffff1603610ac45760006040517f1e4fbdf7000000000000000000000000000000000000000000000000000000008152600401610abb91906114b0565b60405180910390fd5b610acd816110aa565b50565b600073ffffffffffffffffffffffffffffffffffffffff16600360009054906101000a900473ffffffffffffffffffffffffffffffffffffffff1673ffffffffffffffffffffffffffffffffffffffff1603610b61576040517f08c379a0000000000000000000000000000000000000000000000000000000008152600401610b5890611dfd565b60405180910390fd5b600073ffffffffffffffffffffffffffffffffffffffff168373ffffffffffffffffffffffffffffffffffffffff1603610bd0576040517f08c379a0000000000000000000000000000000000000000000000000000000008152600401610bc790611938565b60405180910390fd5b60008211610c13576040517f08c379a0000000000000000000000000000000000000000000000000000000008152600401610c0a906119ca565b60405180910390fd5b6000600360009054906101000a900473ffffffffffffffffffffffffffffffffffffffff1673ffffffffffffffffffffffffffffffffffffffff1663dd62ed3e33306040518363ffffffff1660e01b8152600401610c72929190611e1d565b602060405180830381865afa158015610c8f573d6000803e3d6000fd5b505050506040513d601f19601f82011682018060405250810190610cb39190611e5b565b905082811015610cf8576040517f08c379a0000000000000000000000000000000000000000000000000000000008152600401610cef90611ed4565b60405180910390fd5b6000600360009054906101000a900473ffffffffffffffffffffffffffffffffffffffff1673ffffffffffffffffffffffffffffffffffffffff166323b872dd3387876040518463ffffffff1660e01b8152600401610d5993929190611ef4565b6020604051808303816000875af1158015610d78573d6000803e3d6000fd5b505050506040513d601f19601f82011682018060405250810190610d9c9190611f63565b905080610dde576040517f08c379a0000000000000000000000000000000000000000000000000000000008152600401610dd590611fdc565b60405180910390fd5b60006040518060a001604052803373ffffffffffffffffffffffffffffffffffffffff1681526020018773ffffffffffffffffffffffffffffffffffffffff168152602001868152602001858152602001428152509050600160008773ffffffffffffffffffffffffffffffffffffffff1673ffffffffffffffffffffffffffffffffffffffff16815260200190815260200160002081908060018154018082558091505060019003906000526020600020906005020160009091909190915060008201518160000160006101000a81548173ffffffffffffffffffffffffffffffffffffffff021916908373ffffffffffffffffffffffffffffffffffffffff16021790555060208201518160010160006101000a81548173ffffffffffffffffffffffffffffffffffffffff021916908373ffffffffffffffffffffffffffffffffffffffff160217905550604082015181600201556060820151816003019081610f4b9190611c3e565b5060808201518160040155505084600260008873ffffffffffffffffffffffffffffffffffffffff1673ffffffffffffffffffffffffffffffffffffffff1681526020019081526020016000206000828254610fa79190611d3f565b925050819055506000801b8673ffffffffffffffffffffffffffffffffffffffff163373ffffffffffffffffffffffffffffffffffffffff167fe6802d462de9f1d8f0556d407edb80b10b7db657ea86b86ea13b19828ea9e83688884260405161101393929190611d73565b60405180910390a4505050505050565b61102b61116e565b73ffffffffffffffffffffffffffffffffffffffff16611049610487565b73ffffffffffffffffffffffffffffffffffffffff16146110a85761106c61116e565b6040517f118cdaa700000000000000000000000000000000000000000000000000000000815260040161109f91906114b0565b60405180910390fd5b565b60008060009054906101000a900473ffffffffffffffffffffffffffffffffffffffff169050816000806101000a81548173ffffffffffffffffffffffffffffffffffffffff021916908373ffffffffffffffffffffffffffffffffffffffff1602179055508173ffffffffffffffffffffffffffffffffffffffff168173ffffffffffffffffffffffffffffffffffffffff167f8be0079c531659141344cd1fd0a4f28419497f9722a3daafe3b4186f6b6457e060405160405180910390a35050565b600033905090565b600073ffffffffffffffffffffffffffffffffffffffff82169050919050565b6000819050919050565b60006111bb6111b66111b184611176565b611196565b611176565b9050919050565b60006111cd826111a0565b9050919050565b60006111df826111c2565b9050919050565b6111ef816111d4565b82525050565b600060208201905061120a60008301846111e6565b92915050565b6000604051905090565b600080fd5b600080fd5b600061122f82611176565b9050919050565b61123f81611224565b811461124a57600080fd5b50565b60008135905061125c81611236565b92915050565b6000602082840312156112785761127761121a565b5b60006112868482850161124d565b91505092915050565b600081519050919050565b600082825260208201905092915050565b6000819050602082019050919050565b6112c481611224565b82525050565b6000819050919050565b6112dd816112ca565b82525050565b600081519050919050565b600082825260208201905092915050565b60005b8381101561131d578082015181840152602081019050611302565b60008484015250505050565b6000601f19601f8301169050919050565b6000611345826112e3565b61134f81856112ee565b935061135f8185602086016112ff565b61136881611329565b840191505092915050565b600060a08301600083015161138b60008601826112bb565b50602083015161139e60208601826112bb565b5060408301516113b160408601826112d4565b50606083015184820360608601526113c9828261133a565b91505060808301516113de60808601826112d4565b508091505092915050565b60006113f58383611373565b905092915050565b6000602082019050919050565b60006114158261128f565b61141f818561129a565b935083602082028501611431856112ab565b8060005b8581101561146d578484038952815161144e85826113e9565b9450611459836113fd565b925060208a01995050600181019050611435565b50829750879550505050505092915050565b60006020820190508181036000830152611499818461140a565b905092915050565b6114aa81611224565b82525050565b60006020820190506114c560008301846114a1565b92915050565b60006114d682611176565b9050919050565b6114e6816114cb565b81146114f157600080fd5b50565b600081359050611503816114dd565b92915050565b600080fd5b600080fd5b7f4e487b7100000000000000000000000000000000000000000000000000000000600052604160045260246000fd5b61154b82611329565b810181811067ffffffffffffffff8211171561156a57611569611513565b5b80604052505050565b600061157d611210565b90506115898282611542565b919050565b600067ffffffffffffffff8211156115a9576115a8611513565b5b6115b282611329565b9050602081019050919050565b82818337600083830152505050565b60006115e16115dc8461158e565b611573565b9050828152602081018484840111156115fd576115fc61150e565b5b6116088482856115bf565b509392505050565b600082601f83011261162557611624611509565b5b81356116358482602086016115ce565b91505092915050565b6000819050919050565b6116518161163e565b811461165c57600080fd5b50565b60008135905061166e81611648565b92915050565b60008060006060848603121561168d5761168c61121a565b5b600061169b868287016114f4565b935050602084013567ffffffffffffffff8111156116bc576116bb61121f565b5b6116c886828701611610565b92505060406116d98682870161165f565b9150509250925092565b6116ec816112ca565b81146116f757600080fd5b50565b600081359050611709816116e3565b92915050565b600080604083850312156117265761172561121a565b5b60006117348582860161124d565b9250506020611745858286016116fa565b9150509250929050565b611758816112ca565b82525050565b600082825260208201905092915050565b600061177a826112e3565b611784818561175e565b93506117948185602086016112ff565b61179d81611329565b840191505092915050565b600060a0820190506117bd60008301886114a1565b6117ca60208301876114a1565b6117d7604083018661174f565b81810360608301526117e9818561176f565b90506117f8608083018461174f565b9695505050505050565b6000602082019050611817600083018461174f565b92915050565b6000806000606084860312156118365761183561121a565b5b60006118448682870161124d565b9350506020611855868287016116fa565b925050604084013567ffffffffffffffff8111156118765761187561121f565b5b61188286828701611610565b9150509250925092565b7f4e487b7100000000000000000000000000000000000000000000000000000000600052602260045260246000fd5b600060028204905060018216806118d357607f821691505b6020821081036118e6576118e561188c565b5b50919050565b7f43616e6e6f742074697020746f20746865207a65726f20616464726573730000600082015250565b6000611922601e8361175e565b915061192d826118ec565b602082019050919050565b6000602082019050818103600083015261195181611915565b9050919050565b7f54697020616d6f756e74206d7573742062652067726561746572207468616e2060008201527f3000000000000000000000000000000000000000000000000000000000000000602082015250565b60006119b460218361175e565b91506119bf82611958565b604082019050919050565b600060208201905081810360008301526119e3816119a7565b9050919050565b600081905092915050565b50565b6000611a056000836119ea565b9150611a10826119f5565b600082019050919050565b6000611a26826119f8565b9150819050919050565b7f4e61746976652063757272656e6379207472616e73666572206661696c656400600082015250565b6000611a66601f8361175e565b9150611a7182611a30565b602082019050919050565b60006020820190508181036000830152611a9581611a59565b9050919050565b60008190508160005260206000209050919050565b60006020601f8301049050919050565b600082821b905092915050565b600060088302611afe7fffffffffffffffffffffffffffffffffffffffffffffffffffffffffffffffff82611ac1565b611b088683611ac1565b95508019841693508086168417925050509392505050565b6000611b3b611b36611b31846112ca565b611196565b6112ca565b9050919050565b6000819050919050565b611b5583611b20565b611b69611b6182611b42565b848454611ace565b825550505050565b600090565b611b7e611b71565b611b89818484611b4c565b505050565b5b81811015611bad57611ba2600082611b76565b600181019050611b8f565b5050565b601f821115611bf257611bc381611a9c565b611bcc84611ab1565b81016020851015611bdb578190505b611bef611be785611ab1565b830182611b8e565b50505b505050565b600082821c905092915050565b6000611c1560001984600802611bf7565b1980831691505092915050565b6000611c2e8383611c04565b9150826002028217905092915050565b611c47826112e3565b67ffffffffffffffff811115611c6057611c5f611513565b5b611c6a82546118bb565b611c75828285611bb1565b600060209050601f831160018114611ca85760008415611c96578287015190505b611ca08582611c22565b865550611d08565b601f198416611cb686611a9c565b60005b82811015611cde57848901518255600182019150602085019450602081019050611cb9565b86831015611cfb5784890151611cf7601f891682611c04565b8355505b6001600288020188555050505b505050505050565b7f4e487b7100000000000000000000000000000000000000000000000000000000600052601160045260246000fd5b6000611d4a826112ca565b9150611d55836112ca565b9250828201905080821115611d6d57611d6c611d10565b5b92915050565b6000606082019050611d88600083018661174f565b8181036020830152611d9a818561176f565b9050611da9604083018461174f565b949350505050565b7f54697070696e6720746f6b656e206e6f74207365740000000000000000000000600082015250565b6000611de760158361175e565b9150611df282611db1565b602082019050919050565b60006020820190508181036000830152611e1681611dda565b9050919050565b6000604082019050611e3260008301856114a1565b611e3f60208301846114a1565b9392505050565b600081519050611e55816116e3565b92915050565b600060208284031215611e7157611e7061121a565b5b6000611e7f84828501611e46565b91505092915050565b7f436865636b20746f6b656e20616c6c6f77616e63650000000000000000000000600082015250565b6000611ebe60158361175e565b9150611ec982611e88565b602082019050919050565b60006020820190508181036000830152611eed81611eb1565b9050919050565b6000606082019050611f0960008301866114a1565b611f1660208301856114a1565b611f23604083018461174f565b949350505050565b60008115159050919050565b611f4081611f2b565b8114611f4b57600080fd5b50565b600081519050611f5d81611f37565b92915050565b600060208284031215611f7957611f7861121a565b5b6000611f8784828501611f4e565b91505092915050565b7f546f6b656e207472616e73666572206661696c65640000000000000000000000600082015250565b6000611fc660158361175e565b9150611fd182611f90565b602082019050919050565b60006020820190508181036000830152611ff581611fb9565b905091905056fea26469706673582212201abbb1ac76d572c375282cdc26e2e29a8e29a9f2fe1cbf74f783376c29724c5664736f6c63430008180033",
  "linkReferences": {},
  "deployedLinkReferences": {}
}